:060000000C94C9000C94F1
:1000060000000C9400000C9400000C9400000C946A
:100016003D010C9400000C9400000C9400000C941C
:1000260000000C9400000C94F9000C9400000C9451
:1000360000000C9400000C9400000C9400000C943A
:1000460000000C9400000C9400000C940000102793
:10005600E80364000A00010000100001100001001E
:10006600CC663399993366CC1E000E0D0C0B0A092B
:1000760008070708090A0B0C0D0E0D0C0B0A0908D8
:100086000706060708090A0B0C0D0C0B0A090807D8
:10009600060505060708090A0B0C0B0A09080706D8
:1000A60005040405060708090A0B0A0908070605D8
:1000B6000403030405060708090A090807060504D8
:1000C60003020203040506070809080706050403D8
:1000D60002010102030405060708070605040302D8
:1000E60001000001020304050607070605040302D2
:1000F60001000001020304050607080706050403BC
:10010600020101020304050607080908070605049B
:10011600030202030405060708090A09080706057B
:100126000403030405060708090A0B0A090807065B
:1001360005040405060708090A0B0C0B0A0908073B
:10014600060505060708090A0B0C0D0C0B0A09081B
:100156000706060708090A0B0C0D0E0D0C0B0A09FB
:1001660008070708090A0B0C0D0E80C00400600280
:100176006600040064026A00010081026E0000014C
:10018600CF0670000200CF0770010000F894EE273A
:10019600ECBBF1E0FBBFEBBFE5BFF8E1F1BDE1BDB4
:1001A6008DE0A2E0BB27ED938A95E9F780E098E021
:1001B600A0E6ED930197E9F7E2E7F1E085919591E5
:1001C600009761F0A591B59105901590BF01F001DA
:1001D60005900D920197E1F7FB01F0CFEFE5EDBF3A
:1001E600E8E0EEBFC0E6D2E00C947206AA93BA939A
:1001F600EA93FA93EFB7EA938394481430F4E091C4
:100206007202F0917302309709F415C08824DD203C
:1002160029F0E62DF0E0E05AFD4F04C0E62DF0E0AF
:10022600EC59FD4FE081E2BB6394E3E0E61508F488
:1002360066240E945A079394591430F4E09172028E
:10024600F0917302309709F40EC09924E72DF0E07F
:10025600E05AFD4FE081E8BB7394E3E0E71508F44C
:1002660077240E945A07E991EFBFF991E991B99174
:10027600A99118950A921A92FA926A937A938A9396
:100286009A93AA93BA93EA93FA93EFB7EA931A93D7
:100296000A93B394ECE3EB1510F00C94DC01BB2449
:1002A600CBD0A0916C02B0916D025597B0F00E9430
:1002B6006907A83CE0E0BE0718F40E946E0708F440
:1002C6000CC00E947307A0917602B0917702EA0FE4
:1002D600FB1FE0937602F0937702A0917002B09133
:1002E6007102D397B0F00E946907A83CE0E0BE0710
:1002F60018F40E946E0708F40CC00E947307A091C0
:100306007A02B0917B02EA0FFB1FE0937A02F09328
:100316007B02A0916E02B0916F025597B8F00E94D1
:100326006907A83CE0E0BE0718F40E946E0708F4CF
:100336000CC00E947307A0917802B0917902EA0F6F
:10034600FB1FE0937802F093790201C0A9981091FF
:100356006E0200916C02143108F41EE3043108F4B5
:100366000EE3A02FBB27E12FF0E0AE1BBF0BA0933F
:100376007F02B09380020E947807DF01FB01EA1B2F
:100386005E2E0E947807DB01EA0F4E2EEFEFEA930E
:100396000E94B306E0916C02EA930E94B306E091D4
:1003A6007002EA930E94B306E0916E02EA930E94FD
:1003B600B30609911991E991EFBFF991E991B991C4
:1003C600A9919991899179916991F99019900990DA
:1003D6001895E881E066E7B985E38A95F1F7369ADC
:1003E600349BFECF349AE5B121960895992488244A
:1003F600BB24772466245090810240908102E1E07C
:10040600F0E0E0936802F0936902E0936A02F093E9
:100416006B02E0E0E0937202E0937302E0937202F3
:10042600E0937302AA24E1E0E0937C02E0937E026B
:10043600E0E0E0937D0208950E946108E0E0E09329
:100446006C02E0936D02E0937002E0937102E09318
:100456006E02E0936F0210E000E030E0E3E0EA9322
:10046600B8DF1E2FE9B3E160EBBBE3E00E9484072F
:10047600E0936C02F0936D02E9B3EE7FEBBBE12FE4
:10048600F0E0A0916C02B0916D02AE1BBF0BA09381
:100496006C02B0936D0285E28A95F1F7E4E0EA9387
:1004A60098DF3E2FE9B3E260EBBBE4E00E948407ED
:1004B600E0936E02F0936F02E9B3ED7FEBBBE32F9F
:1004C600F0E0A0916E02B0916F02AE1BBF0BA0933D
:1004D6006E02B0936F0285E28A95F1F7E5E0EA9342
:1004E60078DF0E2FE9B3E460EBBBE5E00E948407FA
:1004F600E0937002F0937102E9B3EB7FEBBBE02F60
:10050600F0E0A0917002B0917102AE1BBF0BA093F8
:100516007002B093710285E28A95F1F79CC1E09171
:100526007C02F0E0A4E6B0E00E942808BF01E0915A
:100536007D02F0E0AAE0B0E00E942808DB01AE0FE1
:10054600BF1FE0917E020E94890708950E948D07D1
:10055600EE0FFF1F0E9490070C9458071A9310E0A5
:10056600EA81F0E00E941708DF01E981F0E0EA0F76
:100576001E2FE12F1881239608951A930A93EFE010
:10058600E0938202E0E0E0938302E0938402E3E0FA
:10059600E0938502E6E0E0938602E2E0E0938702DC
:1005A600E0E0E0938802E2E0E0938902E1E0E09394
:1005B600AB06E093CB0610E01031A0F400E000316A
:1005C60078F41A930E949307FF93EF930A93BEDF82
:1005D600AF91BF910E949B07E1E0EC930F5FEFCFD5
:1005E6001F5FEACF6EC30E949F073197E093820296
:1005F600E0E00E94A30721F4E0918702EF5F07C0C5
:10060600A0918802A13029F4E0918702E150E0939D
:10061600870208950E949F073196E0938202E2E0E6
:100626000E94A30721F4E0918702EF5F07C0A09123
:100636008802A13029F4E0918702E150E093870215
:1006460008950E94A9073196E0938302E1E00E9493
:10065600A30721F4E0918702EF5F07C0A09188020B
:10066600A13029F4E0918702E150E09387020895D2
:100676000E94A9073197E0938302E3E00E94A30753
:1006860021F4E0918702EF5F07C0A0918802A130B4
:1006960029F4E0918702E150E09387020895E98109
:1006A600A1E2EA9FF001E657FD4FDF010E948D07A8
:1006B600AE0FBF1FE0E0EC93E1E0E09388022296E4
:1006C60008950E94AD070E94B20740DFEA93E7DF74
:1006D600A0918902A23021F4E091CD06E03009F024
:1006E60002C098DF20C0A0918902A33021F4E091D6
:1006F600CE06E03009F002C0BBDF15C0A09189022A
:10070600A03021F4A091CB06A03009F002C06BDF27
:100716000AC0A0918902A13021F4E091CC06E03014
:1007260009F001C08EDF0895A0918202A13088F001
:100736000E94AD070E94B7070E94BA07FF93EF9386
:100746000E94C107AF91BF910E949B070E94C607F6
:1007560009F002C0E0E043C0A0918302AF3078F414
:100766000E94CF07FF93EF930E94C1070E94D30711
:10077600AF91BF91AE0FBF1F0E94C60709F002C01E
:10078600E1E02DC0A0918202AF3088F40E94AD074F
:100796000E94D3070E94BA07FF93EF930E94C107F6
:1007A600AF91BF910E949B070E94C60709F002C045
:1007B600E2E015C0A0918302A13078F00E94CF0735
:1007C600FF93EF930E94C1070E94B707AF91BF91B5
:1007D600AE0FBF1F0E94C60709F003C0E3E0E09317
:1007E600890208950E9461089ADE1E2FE091840214
:1007F6000E94D6070E2F30918402E09184020E9457
:10080600D9070E94DC072E2FE09184020E94D307AD
:100816000E94DC07DF01E553F94FBF01FD01329667
:100826000E94DC07E553F94FE081DB01EC93E22FF0
:100836000E94E207E32F0E94E207E02FF0E0E55373
:10084600F94FBF01A12FBB27EAE0F0E00E9445085F
:10085600F0E0DB01EC930E946608249608950E945E
:10086600CF07FF93EF930E94C107AF91BF910E94FC
:100876008907A0918702A083B5DF0E94AD070E9479
:10088600D6070E94BA07FF93EF930E94C107AF9164
:10089600BF910E948907A091CB06A0830E94CF0733
:1008A600FF93EF930E94C1070E94D907AF91BF91B2
:1008B600AE0FBF1FE091CC06EC930E94AD070E94DD
:1008C600D9070E94BA07FF93EF930E94C107AF9121
:1008D600BF910E949B07E091CD06EC930E94CF0743
:1008E600FF93EF930E94C1070E94D607AF91BF9175
:1008F600AE0FBF1FE091CE06EC93E0E0E0938802D6
:10090600A0918202A130A8F0A091CB06A03089F474
:100916000E94AD070E94B7070E94BA07FF93EF93A4
:100926000E94C107AF91BF910E949B07AC91A13075
:1009360009F010C00E94AD070E94B7070E94BA07CF
:10094600FF93EF930E94C107AF91BF910E949B074F
:10095600EFEFEC93A0918202AF30A8F4E091CD06C0
:10096600E03089F40E94AD070E94D3070E94BA07BF
:10097600FF93EF930E94C107AF91BF910E949B071F
:10098600AC91A13009F010C00E94AD070E94D307B8
:100996000E94BA07FF93EF930E94C107AF91BF91E0
:1009A6000E949B07EFEFEC93A0918302A13098F091
:1009B600E091CE06E03079F40E94CF07FF93EF93E3
:1009C6000E94C1070E94B707AF91BF91AE0FBF1F2C
:1009D600AC91A13009F00EC00E94CF07FF93EF93B0
:1009E6000E94C1070E94B707AF91BF91AE0FBF1F0C
:1009F600EFEFEC93A0918302AF3098F4E091CC0630
:100A0600E03079F40E94CF07FF93EF930E94C1076D
:100A16000E94D307AF91BF91AE0FBF1FAC91A1301B
:100A260009F00EC00E94CF07FF93EF930E94C10703
:100A36000E94D307AF91BF91AE0FBF1FEFEFEC93AC
:100A4600A0918202A73021F4A0918302A730C9F0B9
:100A5600A0918202A73021F4A0918302A83089F0E8
:100A6600A0918202A83021F4A0918302A73049F018
:100A7600A0918202A83021F4A0918302A83009F047
:100A860002C0E1E00895E0E0089508951A930A93FC
:100A960014E604E6A0918202A13010F1A091CB06E3
:100AA600A030F1F40E94AD070E94B7070E94BA0772
:100AB600FF93EF930E94C107AF91BF910E949B07DE
:100AC600EC91EF930E94CF07FF93EF930E94C1072B
:100AD600AF91BF910E949B07EC91AF91EA1708F086
:100AE6001AC0143639F40E949F070E94F7070E9425
:100AF600FA0710810E949F070E94F7070E94FA07D3
:100B0600E0811E1740F00E949F070E94F7070E948F
:100B1600FA07108100E0A0918302AF3000F5E09162
:100B2600CC06E030E1F40E94CF07FF93EF930E94DA
:100B3600C1070E94D307AF91BF91AE0FBF1FEC91C3
:100B4600EF930E94CF07FF93EF930E94C107AF91E7
:100B5600BF910E949B07EC91AF91EA1708F01DC068
:100B6600143641F40E9400080E949007EA930E94FE
:100B7600FA0710810E9400080E949007EA930E94DB
:100B8600FA07E0811E1748F00E9400080E949007AD
:100B9600EA930E94FA07108101E0A0918202AF3029
:100BA60010F5E091CD06E030F1F40E94AD070E9409
:100BB600D3070E94BA07FF93EF930E94C107AF9134
:100BC600BF910E949B07EC91EF930E94CF07FF9382
:100BD600EF930E94C107AF91BF910E949B07EC91D2
:100BE600AF91EA1708F020C0143649F40E949F0717
:100BF6000E9490070E94B2070E94FA0710810E9485
:100C06009F070E9490070E94B2070E94FA07E081A0
:100C16001E1750F00E949F070E9490070E94B2077D
:100C26000E94FA07108102E0A0918302A13000F130
:100C3600E091CE06E030E1F40E94CF07FF93EF93F8
:100C46000E94C1070E94B707AF91BF91AE0FBF1FA9
:100C5600EC91EF930E94CF07FF93EF930E94C10799
:100C6600AF91BF910E949B07EC91AF91EA1708F0F4
:100C760014C0143629F40E9400080E94040810814A
:100C86000E9400080E940408E0811E1730F00E94AE
:100C960000080E940408108103E0003011F4A3DC70
:100CA6000FC0013011F4CDDC0BC0023011F4B2DC00
:100CB60007C0033011F4DCDC03C0043609F401DD9F
:100CC60033DD0991199108951A9310E056DC10301E
:100CD60021F4C5DD1E2FDADEFACF19910895E0E082
:100CE600EBBBE7E0EABBE0E0E8BBEFE0E7BBE0E058
:100CF600E5BBE4BBE2BBE0EFE1BB78DBE2E0E3BFF0
:100D0600E0E0E2BFECBFEFBDEEBDEDBDECBDE7BD83
:100D1600E6BDEBBDEABDE9BDE8BDE2BDE2E0E5BD8D
:100D2600E0E0E4BDE3BDE5BFE4BFE1E4E9BFE0E048
:100D3600EBB9E8E0EAB9E6E8E0BDE0E0E0BDE3E310
:100D4600E9B9E0E8E8B9E0E0E0BFE0E6E7B9E7E8FE
:100D5600E6B9E0E1EA930E9420077894B5DFFFCF79
:100D66005D9BFECFE881ECB90C945807FFE0FA953D
:100D7600F1F70895A4B3AF70A4BBA99AA898F6DFBB
:100D8600AA9AF4DFA3B3AA98F1DFAA9AEFDFAA988A
:100D9600A7FDF5CF0895A07FAB2BA5BBAA9A0E940D
:100DA600B906AA980E94B9060895A998A4B3A76F90
:100DB600A4BBB5B3BF70A881EEDFA881A295EBDF17
:100DC600A99A0C945807AA9A0E94B906E3B3AA985E
:100DD6000E94B906E07F08950E94B906F4DFAE2F9F
:100DE600F2DFA998E295EA2B08950E94BD06E2E09B
:100DF600EA930E94D8060E94BD06ECE0EA930E94A0
:100E0600D8060E94BD06E1E0EA930E94D806E0E01B
:100E1600E093D407E093D3070895AA27BB27119739
:100E2600F1F70895A998A4B3A76FA4BBB5B3BF7093
:100E3600A8810E94CE06A99A38C0AA98A898E881E7
:100E4600E093D5070E948D07E058FF4FE093D10746
:100E56000E948D07E054FF4FE093D2070E940808D6
:100E66000E9408080E940808D8DFE0E2EA93DADF69
:100E7600D4DFE8E20E940E08E4E00E940E08E5E8EE
:100E86000E940E08A4B3AF70A4BBA99A0E94EF06F5
:100E9600E53011F0E0E009C00E94BD06E6E0EA9305
:100EA6000E94D8060E94F806E1E021960895A4E77C
:100EB600B2E0ED91FD913196FE93EE93A2E7B2E09A
:100EC600ED91FD913197FE93EE930895A0917202F4
:100ED600B09173020895FADFAC36E0E0BE070895DC
:100EE600E0917402F091750208956091810277276E
:100EF600A0917F02B0918002E8E0F0E00E944008F5
:100F06000895EA930E94EC01F0E00895F0E0EA0FFC
:100F1600FB1F0895E881F0E008953196F0E008950A
:100F26000E94A902A1E2EA9FF001E657FD4F08954B
:100F3600F0E0AE0FBF1F0895E0918202F0E0089541
:100F4600E0938402E0918802E0300895E091830204
:100F5600F0E00895E0918202EA930C94A902EA93E4
:100F6600E0918302EA930895F0E032970895A1E2B2
:100F7600B0E00E942008E657FD4F0895E0918302F5
:100F8600EA930C94A902AC91E0918702F0E03197C4
:100F9600B0E0EA17FB070895E0918202EA93C0CF1A
:100FA600F0E032960895F0E031970895F0E031963A
:100FB6000895DF01E4E0F0E00E9445080895F0E0BE
:100FC600E553F94FBF01A12FBB27EAE0F0E00E94ED
:100FD6004508F0E0DB01EC93A12FB0E0EAE0F0E099
:100FE6000E9440081E2F08953197F0E0B8CF0E9466
:100FF600B102F0E0E153F94F0895E0918202EA93DD
:10100600A5CF3197F0E0EA93F2CF0E941007E0E314
:10101600EA930C941507EA930E94D8060C941007DD
:10102600F195E195F0400895EE0FFF1FEE0FFF1FBB
:10103600EE0FFF1FEE0FFF1F0895FA9FF02DEB9F97
:10104600F00DEA9FE02DF10D08952AD0F6DF0EF49B
:10105600E7DF08950024112490E1AA0FBB1F001CAE
:10106600111C0E1A1F0A18F40E0E1F1E01C0A160D5
:101076009A9599F7FD01D001089512D0EBDF0EF491
:10108600CFDF0895E894B7FF04C0A095B0951196F8
:101096006894F7FDC5DFDEDFFD010EF4C1DF0895BC
:1010A600E894F7FF02C0BCDF6894B7FF06C0A095BE
:1010B600B095119600F8039400FA08953A932A938E
:1010C6001A930A9308953B812A811981088108950C
:00000001FF
