:0E0000000C942F000C9400000C9400000C9443
:10000E0000000C9400000C9400000C9400000C9462
:10001E0000000C9400000C9400000C9400000C9452
:10002E0000000C9400000C9400000C9400000C9442
:10003E0000000C9400000C9400000C9400000C9432
:10004E0000000C94000080C002006001540000000B
:10005E00F894EE27ECBBF1E0FBBFEBBFE5BFF8E198
:10006E00F1BDE1BD8DE0A2E0BB27ED938A95E9F7E6
:10007E0080E094E0A0E6ED930197E9F7E6E5F0E085
:10008E0085919591009761F0A591B5910590159088
:10009E00BF01F00105900D920197E1F7FB01F0CF42
:1000AE00EFE5EDBFE4E0EEBFC0E6D1E00C94AF00AB
:1000BE000E941502ED81EA93ED81EA930E944701B9
:1000CE000E94CA010E941202F0961E2F0E94CA01BF
:1000DE000E94CF010E941202F0960E2F0E94CA01BA
:1000EE000E94CF010E941202F0963E2F3A930E9478
:1000FE0071010A930E9471011A930E9471010E946C
:10010E001A0228960895E881E06CE7B985E38A958E
:10011E00F1F7369A349BFECF349AE4B1F5B10C94D4
:10012E00C8010E94150200E010E030E0383038F4CB
:10013E00EC81EA93E8DF0E0F1F1F3F5FF7CFF80148
:10014E000E94F8018F01F8010E941A022596089567
:10015E00E0E0EBBBEABBE8BBE7BBE5BBE4BBE2BB65
:10016E00E1BBE3BFE2BFECBFEFBDEEBDEDBDECBD4D
:10017E00E7BDE6BDEBBDEABDE9BDE8BDE2BDE5BD4F
:10018E00E4BDE3BDE5BFE4BFE9BFE0E8E8B9E0E008
:10019E00E0BFE0ECE7B9E7E8E6B9E0E1EA930E94F8
:1001AE009A01E0E00E94D401E9E0EA93E1E0EA93EB
:1001BE007FDFE1E00E94D401E4E0EA93E1E0EA931C
:1001CE0077DFE2E00E94D401E4E00E94DA01E3E08E
:1001DE000E94D401E0E00E94DA01E4E00E94D40122
:1001EE00EDE00E94DA01E5E00E94D401E9E00E9410
:1001FE00DA01EAE0F0E0FA93EA930E94EC01D1CF43
:10020E00FFCFFFE0FA95F1F70895A4B3AF70A4BB4A
:10021E00A99AA898F6DFAA9AF4DFA3B3AA98F1DFF9
:10022E00AA9AEFDFAA98A7FDF5CF0895A07FAB2B72
:10023E00A5BBAA9A0E940801AA980E9408010895D7
:10024E00A998A4B3A76FA4BBB5B3BF70A881EEDF06
:10025E00A881A295EBDFA99A0C94C801AA9A0E94D4
:10026E000801E3B3AA980E940801E07F08950E9456
:10027E000801F4DFAE2FF2DFA998E295EA2B08957C
:10028E000E940C010E94DF01E05AFE4FE081F0E077
:10029E00DF01E981F0E0EA0FFB1FEA930E942701DC
:1002AE0059804880229608950E940C01E2E0EA935C
:1002BE000E9427010E940C01ECE0EA930E942701A4
:1002CE000E940C01E1E0EA930E942701E0E04E2E2D
:1002DE005E2E0895EF93FF93A8816894AA3021F0C3
:1002EE00E8945394751430F44394E0E0EA934A9200
:1002FE00C7DF2EF08ADFA89AA881AA93A1DFFF910B
:10030E00EF910C94C801AA27BB271197F1F7089516
:10031E00A998A4B3A76FA4BBB5B3BF70A8810E9460
:10032E001D01A99A2EC0AA98A898788041D0E058AD
:10033E00FF4FE09362013CD0E054FF4FE093630126
:10034E003AD039D038D0DFDFE0E2EA93E1DFDBDF0D
:10035E00E8E236D0E4E034D0E5E832D0A4B3AF70B2
:10036E00A4BBA99A0E943E01E53011F0E0E009C05D
:10037E000E940C01E6E0EA930E9427010E945B01B5
:10038E00E1E021960895AE81BF81EAE0F0E00895A4
:10039E000E94FF01EE83FF83F6CFEA930E9498003E
:1003AE00FA93EA930895EA93E0E0EA930C945F00DF
:1003BE00E881F0E008950E948A01E0E3EA93A8CF75
:1003CE00EA930E9427010C948A01E991F9913096E3
:1003DE0039F080EA9FE00197F1F7A8953197C9F7B8
:1003EE000895F695E795F695E795F695E7950895B0
:1003FE000024112490E1AA0FBB1F001C111C0E1A21
:10040E001F0A18F40E0E1F1E01C0A1609A9599F7CF
:10041E00FD01D0010895ECDFFD0108953A932A9372
:10042E001A930A9308953B812A81198108810895B0
:00000001FF
