:0C0000000C9441000C9400000C940000D3
:10000C000C9400000C9483000C9400000C940000E1
:10001C000C94A2000C9400000C9400000C94710041
:10002C000C9400000C9400000C9400000C94000044
:10003C000C9400000C9400000C9400000C94000034
:10004C000C9400000C940000CC663399993366CC68
:10005C006900960080C00400600254000400640231
:10006C005800010074025C0001000A005E000200EE
:10007C00750260000000F894EE27ECBBF1E0FBBFCA
:10008C00EBBFE5BFF8E1F1BDE1BD8DE0A2E0BB2720
:10009C00ED938A95E9F780E098E0A0E6ED9301975F
:1000AC00E9F7E2E6F0E085919591009761F0A59172
:1000BC00B59105901590BF01F00105900D92019737
:1000CC00E1F7FB01F0CFEFE5EDBFE8E0EEBFC0E6F6
:1000DC00D2E00C946D010A92EA93FA93EFB7EA938B
:1000EC000C2C0D2821F00E944E0208F46624E99194
:1000FC00EFBFF991E99109901895EA93FA93EFB74C
:10010C00EA93E0916802F0916902309781F0E72D53
:10011C00F0E0E05AFD4FE081E2BB989B02C0A8984A
:10012C0001C0A89A7394E3E0E71508F47724E991E9
:10013C00EFBFF991E99118950A921A92FA926A9383
:10014C007A938A939A93AA93BA93EA93FA93EFB712
:10015C00EA93B394E8E2EB1510F00C94F300BB2493
:10016C0061D00E945802E0937202F0937302A09146
:10017C006A02B0916B02159730F4E0917402F0E0D2
:10018C000E945D0218C00E945D02159770F4E09108
:10019C007402F0E0A0916A02B0916B02AE1BBF0B2F
:1001AC00A0937002B09371020CC00E945D02E091AA
:1001BC006A02F0916B02EA1BFB0BE0937002F09366
:1001CC0071020E946202DF01FB01EA1BFB0BE3BD23
:1001DC000E946202E60FF71FECBFE991EFBFF991A5
:1001EC00E991B991A9919991899179916991F99034
:1001FC00199009901895E881E06EE7B985E38A9526
:10020C00F1F7369A349BFECF349AE5B10C944C023C
:10021C0099248824BB24772466245A2C4A2C0E94C7
:10022C00790208950E94CC02E0E0E0936A02E09328
:10023C006B02E0936E02E0936F02E0936C02E0932A
:10024C006D0200E030E020E0E5E00E948102E093E6
:10025C006A02F0936B02E6E00E948102E0936E0268
:10026C00F0936F02E7E00E948102E0936C02F0933E
:10027C006D020E94D102249608951A93CC24DD2499
:10028C00E0E0E0936802E09369020E94860210E0CD
:10029C001D32B8F40E944E0208F46624E72DF0E0FB
:1002AC00EC59FD4FE081E2BB7394E3E0E71508F4F1
:1002BC007724E8E0F0E0FA93EA930E9496021F5F3D
:1002CC00E7CF0E9486020E94790219910895A0DF5F
:1002DC00E0E0EBBBEABBE8BBEFE0E7BBEFEFE5BB75
:1002EC00E4BBE0E0E2BBE0EFE1BBEDE0E3BFE0E06C
:1002FC00E2BFE6E9ECBFE0E0EFBDEDE0EEBDE0E033
:10030C00EDBDECBDE7BDE6BDEBBDEFEFEABDE0E05A
:10031C00E9BDE8BDE2BDEFE0E5BDE0E0E4BDE6E946
:10032C00E3BDE0E0E5BFE4BFE2E9E9BFE0E8E8B93E
:10033C00E0E0E0BFE0EEE7B9E7E8E6B9E0E1EA9338
:10034C000E941B027894EFEFE5BBA0916E02B09176
:10035C006F025F9708F091DFF8CFFFCFFFE0FA95BF
:10036C00F1F70895A4B3AF70A4BBA99AA898F6DFCF
:10037C00AA9AF4DFA3B3AA98F1DFAA9AEFDFAA989E
:10038C00A7FDF5CF0895A07FAB2BA5BBAA9A0E9421
:10039C00B401AA980E94B4010895A998A4B3A76FB8
:1003AC00A4BBB5B3BF70A881EEDFA881A295EBDF2B
:1003BC00A99A0C944C02AA9A0E94B401E3B3AA988D
:1003CC000E94B401E07F08950E94B401F4DFAE2FC7
:1003DC00F2DFA998E295EA2B08950E94B801E2E0B9
:1003EC00EA930E94D3010E94B801ECE0EA930E94C8
:1003FC00D3010E94B801E1E0EA930E94D301E0E04E
:10040C00E0937A02E09379020895AA27BB2711970B
:10041C00F1F70895A998A4B3A76FA4BBB5B3BF70A7
:10042C00A8810E94C901A99A31C0AA98A898E8810C
:10043C00E0937B02F0E0E058FF4FE0937702E88115
:10044C00F0E0E054FF4FE093780260D05FD05ED0D4
:10045C00DCDFE0E2EA93DEDFD8DFE8E25CD0E4E068
:10046C005AD0E5E858D0A4B3AF70A4BBA99A0E94A7
:10047C00EA01E53011F0E0E009C00E94B801E6E0C5
:10048C00EA930E94D3010E94F301E1E021960895C2
:10049C00E62DF0E0E05AFD4FE081E8BB6394E3E029
:1004AC00E6150895E0917002F09171020895A09103
:1004BC006C02B0916D0208956A2D7727A09170029D
:1004CC00B0917102E0E1F0E00E94B9020F01A0913D
:1004DC007202B0917302E6DFEA1BFB0BEE0FFF1FFB
:1004EC00E00DF11D0895E1E0F0E06F01E09368028A
:1004FC00F09369020895EA930E940101F0E00895D7
:10050C00EAE0F0E0FA93EA930C9496020E940B0254
:10051C00E0E3EA937FCFEA930E94D3010C940B02A1
:10052C00E991F991309639F080EA9FE00197F1F763
:10053C00A8953197C9F70895F195E195F040089584
:10054C000024112490E1AA0FBB1F001C111C0E1AD1
:10055C001F0A18F40E0E1F1E01C0A1609A9599F780
:10056C00FD01D001089504D0EBDF0EF4E5DF089512
:10057C00E894F7FF02C0E0DF6894B7FF06C0A095CF
:10058C00B095119600F8039400FA08953A932A93C3
:10059C001A930A9308953B812A8119810881089541
:00000001FF
