:0C0000000C943D000C9400000C940000D7
:10000C000C9400000C9497000C9400000C940000CD
:10001C000C9400000C9400000C946D000C940000E7
:10002C000C9400000C9400000C9400000C94000044
:10003C000C9400000C9400000C9400000C94000034
:10004C000C9400000C940000CC663399993366CC68
:10005C000F0080C0040060015400040064015800CB
:10006C0001000A005C00020075015E000000F894BB
:10007C00EE27ECBBF1E0FBBFEBBFE5BFF8E1F1BD58
:10008C00E1BD8DE0A2E0BB27ED938A95E9F780E016
:10009C0094E0A0E6ED930197E9F7E0E6F0E08591B6
:1000AC009591009761F0A591B59105901590BF01C0
:1000BC00F00105900D920197E1F7FB01F0CFEFE510
:1000CC00EDBFE4E0EEBFC0E6D1E00C94DC010E9491
:1000DC00F4028394481418F40C2C0D2809F40CC069
:1000EC008824E0E0E8BB6394E3E0E61508F46624BA
:1000FC000E940203EAEAE8BB9394591430F4E091AD
:10010C006801F0916901309709F40AC09924E0E084
:10011C00E2BB7394E3E0E71508F477240E94020332
:10012C0059C00E94F402B394E8E2EB1510F00C9461
:10013C00F000BB2474D0E0917001F0917101E09358
:10014C007201F09373010E9408031F9738F40E9408
:10015C000D030E9415030E940D0320C00E941C0376
:10016C001F9760F4E09174010E942103A093700129
:10017C00B0937101E0917401F0E00CC00E941C037B
:10018C00E0916A01F0916B010E941503E0916C0102
:10019C00F0916D01A0916A01B0916B01AE0FBF1F80
:1001AC00FD01F695E795E09374010E9426030E94E9
:1001BC00900334F40E942B03DB01EA0F4E2E0AC08D
:1001CC00A0917101AA2332F40E942B03DF01FB01E1
:1001DC00EA1B5E2EE991EFBFF991E991B991A991D2
:1001EC009991899179916991F99019900990189543
:1001FC00E881E06EE7B985E38A95F1F7369A349B8E
:10020C00FECF349AE5B10C94F20299248824BB24D5
:10021C00772466245A2C4A2C0E94330308950E949A
:10022C009403E0E0E0936A01E0936B01E0936E01CC
:10023C00E0936F01E0936C01E0936D0100E030E01E
:10024C0020E0E3E0EA93D4DF0E2FE9B3E160EBBBEF
:10025C00E3E00E943B03E0936A01F0936B01E9B386
:10026C00EE7FEBBBE02F0E942103A0936A01B093B9
:10027C006B0185E28A95F1F7E4E0EA93B9DF2E2F62
:10028C00E9B3E260EBBBE4E00E943B03E0936C015A
:10029C00F0936D01E9B3ED7FEBBBE22FF0E00E9430
:1002AC001C03AE1BBF0BA0936C01B0936D0185E2D8
:1002BC008A95F1F7E5E0EA939BDF3E2FE9B3E46022
:1002CC00EBBBE5E00E943B03E0936E01F0936F0102
:1002DC00E9B3EB7FEBBBE32FF0E0A0916E01B091A3
:1002EC006F01AE1BBF0BA0936E01B0936F0185E243
:1002FC008A95F1F70E949903249608950E9494031D
:10030C00ED81EA93ED81EA930E945B020E94400327
:10031C000E947F03F0961E2F0E9440030E9445030B
:10032C000E947F03F0960E2F0E9440030E9445030B
:10033C000E947F03F0963E2F3A930E948B020A9301
:10034C000E948B021A930E948B020E94990328969A
:10035C0008951A93CC24DD24E0E0E0936801E09347
:10036C00690110E01B34F0F4E62DF0E0EC59FE4F7F
:10037C00E081E8BB6394E3E0E61508F46624E72D1E
:10038C00F0E0E05AFE4FE081E2BB7394E3E0E71546
:10039C0008F47724E2E0F0E0FA93EA930E94570322
:1003AC001F5FE0CF0E94330319910895E0E0EBBB8F
:1003BC00E7E0EABBE0E0E8BBEFE0E7BBE0E0E5BB91
:1003CC00E4BBE2BBE0EFE1BB20DFE2E0E3BFE0E057
:1003DC00E2BFECBFEFBDEEBDEDBDECBDE7BDE6BDD4
:1003EC00EBBDEABDE9BDE8BDE2BDE2E0E5BDE0E0A4
:1003FC00E4BDE3BDE5BFE4BFE1E4E9BFE0E8E8B993
:10040C00E0E0E0BFE0EEE7B9E7E8E6B9E0E1EA9367
:10041C000E94C2027894A0916E01B0916F01AB352D
:10042C00E0E0BE0708F095DFF6CFFFCFFFE0FA95CE
:10043C00F1F70895A4B3AF70A4BBA99AA898F6DFFE
:10044C00AA9AF4DFA3B3AA98F1DFAA9AEFDFAA98CD
:10045C00A7FDF5CF0895A07FAB2BA5BBAA9A0E9450
:10046C001C02AA980E941C020895A998A4B3A76F15
:10047C00A4BBB5B3BF70A881EEDFA881A295EBDF5A
:10048C00A99A0C94F202AA9A0E941C02E3B3AA98AD
:10049C000E941C02E07F08950E941C02F4DFAE2F24
:1004AC00F2DFA998E295EA2B08950E9420020E949F
:1004BC004A03EB58FE4FE081F0E0DF01E981F0E008
:1004CC00EA0FFB1FEA930E943B02E981E09379015A
:1004DC00E881E0937A01229608950E942002E2E0DE
:1004EC00EA930E943B020E942002ECE0EA930E94F5
:1004FC003B020E942002E1E0EA930E943B02E0E012
:10050C00E0937A01E09379010895EF93FF93A8812A
:10051C006894AA3061F0E894E0917901EF5FE09380
:10052C007901E0917B01A0917901EA1760F4E091E7
:10053C007A01EF5FE0937A01E0E0EA93E0917A01CF
:10054C00EA93B3DF2EF076DFA89AA881AA938DDF09
:10055C00FF91EF910C94F202AA27BB271197F1F7A8
:10056C000895A998A4B3A76FA4BBB5B3BF70A88115
:10057C000E943102A99A30C0AA98A898E881E09309
:10058C007B0182D0E058FF4FE09377017DD0E0549F
:10059C00FF4FE09378017BD07AD079D0DDDFE0E2B9
:1005AC00EA93DFDFD9DFE8E277D0E4E075D0E5E865
:1005BC0073D0A4B3AF70A4BBA99A0E945202E530C9
:1005CC0011F0E0E009C00E942002E6E0EA930E94EC
:1005DC003B020E947302E1E0219608950A921A925E
:1005EC00FA926A937A938A939A93AA93BA93EA9318
:1005FC00FA93EFB7EA930895E5E0F0E0FA93EA9303
:10060C000C945703A0916A01B0916B010895E0918D
:10061C007401F0E0A0916C01B0916D010895EA1B9A
:10062C00FB0BE0937001F09371010895A0916C01A4
:10063C00B0916D010895F0E0E5DFAE1BBF0B08959E
:10064C00A0917001B091710108956A2D7727F8DFA0
:10065C00E4E0F0E00E947A030895E1E0F0E06F013D
:10066C00E0936801F09369010895EA930E94FE00FB
:10067C00F0E00895AE81BF81EAE0F0E008950E94B9
:10068C006703EE83FF83F6CFE881F0E008950E94C4
:10069C00B202E0E3EA9365CFEA930E943B020C942A
:1006AC00B202E991F991309639F080EA9FE0019716
:1006BC00F1F7A8953197C9F70895F195E195F040B8
:1006CC0008950024112490E1AA0FBB1F001C111CDB
:1006DC000E1A1F0A18F40E0E1F1E01C0A1609A9567
:1006EC0099F7FD01D001089507D0EBDF0EF4E5DF9B
:1006FC000895E7DFFD010895E894F7FF02C0DDDF00
:10070C006894B7FF06C0A095B095119600F80394B5
:10071C0000FA089500240A160B0608953A932A93BA
:10072C001A930A9308953B812A81198108810895AF
:00000001FF
