:0A0000000C944C000C9400000C94CA
:10000A0000000C9400000C94BA000C9400000C94AC
:10001A0000000C9400000C9400000C947C000C94DA
:10002A0000000C9400000C9400000C9400000C9446
:10003A0000000C9400000C9400000C9400000C9436
:10004A0000000C9400000C9400001027E8036400E0
:10005A000A0001000010000110000100CC6633996B
:10006A00993366CC1E004C74006E6F0052740046C1
:10007A00720080C0040060016600040064016A0026
:10008A00010081016E00020082017C000000F894E8
:10009A00EE27ECBBF1E0FBBFEBBFE5BFF8E1F1BD3A
:1000AA00E1BD8DE0A2E0BB27ED938A95E9F780E0F8
:1000BA0094E0A0E6ED930197E9F7EEE7F0E0859189
:1000CA009591009761F0A591B59105901590BF01A2
:1000DA00F00105900D920197E1F7FB01F0CFEFE5F2
:1000EA00EDBFE4E0EEBFC0E6D1E00C945802AA935B
:1000FA00BA93EA93FA93EFB7EA938394481418F4FD
:10010A000E948B0309F415C08824DD2029F0E62D0E
:10011A00F0E0E05AFE4F04C0E62DF0E0EC59FE4F45
:10012A00E081E8BB6394E3E0E61508F466240E94E4
:10013A0091039394591418F40E948B0309F40EC086
:10014A009924E72DF0E0E05AFE4FE081E2BB739478
:10015A00E3E0E71508F477240E949103E991EFBFE1
:10016A00F991E991B991A99118950A921A92FA927C
:10017A006A937A938A939A93AA93BA93EA93FA938D
:10018A00EFB7EA931A930A93B394E8E2EB1510F0E7
:10019A000C946101BB24CBD0A0916C01B0916D018C
:1001AA001697B0F00E94A003A83CE0E0BE0718F43E
:1001BA000E94A50308F40CC00E94AA03A09176012C
:1001CA00B0917701EA0FFB1FE0937601F093770174
:1001DA00A0917001B0917101D397B0F00E94A00371
:1001EA00A83CE0E0BE0718F40E94A50308F40CC07E
:1001FA000E94AA03A0917A01B0917B01EA0FFB1F2A
:10020A00E0937A01F0937B01A0916E01B0916F01A6
:10021A001697B8F00E94A003A83CE0E0BE0718F4C5
:10022A000E94A50308F40CC00E94AA03A0917801B9
:10023A00B0917901EA0FFB1FE0937801F0937901FD
:10024A0001C0A99810916E0100916C01153008F453
:10025A0019E6053008F409E6A02FBB27E12FF0E0E4
:10026A00AE1BBF0BA0937F01B09380010E94AF0326
:10027A00DF01FB01EA1B5E2E0E94AF03DB01EA0FDE
:10028A004E2EE0916E01F0916F01FA93EA93E0E04D
:10029A000E94BB03E0916C01F0916D01FA93EA931D
:1002AA00EAE00E94BB03E0917001F0917101FA93B8
:1002BA00EA93E5E00E94BB0309911991E991EFBF26
:1002CA00F991E991B991A991999189917991699154
:1002DA00F990199009901895E881E066E7B985E3E5
:1002EA008A95F1F7369A349BFECF349AE5B10C948D
:1002FA00890399248824BB24772466245090810199
:10030A0040908101E1E0F0E0E0936801F093690137
:10031A00E0936A01F0936B01E0E0E0937201E093ED
:10032A007301E0937201E0937301AA2408950E9475
:10033A002304E0E0E0936C01E0936D01E093700127
:10034A00E0937101E0936E01E0936F0100E030E009
:10035A0020E0E5E00E94C003E0936C01F0936D0198
:10036A00E6E00E94C003E0937001F0937101E7E0B8
:10037A000E94C003E0936E01F0936F010E9428046B
:10038A00249608950E942304ED81EA93ED81EA936D
:10039A000E94D9020E94C5030E941204F0961E2FE1
:1003AA000E94C5030E94CA030E941204F0960E2FEF
:1003BA000E94C5030E94CA030E941204F0963E2FAF
:1003CA003A930E9409030A930E9409031A930E940E
:1003DA0009030E942804289608950E948B03E9F7CE
:1003EA000E948B03E9F7E0E0E0937601E09377015E
:1003FA00E0937801E0937901E0937A01E0937B013D
:10040A00E1E0DE2ECE2EE4EBF1E0E0937201F09310
:10041A0073010E948B03E9F70E948B03E9F7A0910D
:10042A007601B0917701A734E0E0BE0740F00E9460
:10043A00CF03E0E7F0E00E94D503E1E005C00E94A7
:10044A00CF030E94D903E0E0E0937C01A0917801F8
:10045A00B0917901A734E0E0BE0740F00E94DC03C6
:10046A00E6E7F0E00E94D503E1E005C00E94DC0364
:10047A000E94D903E0E0E0937E01A0917A01B09155
:10048A007B01D39740F00E94E203E9E7F0E00E9483
:10049A00D503E1E005C00E94E2030E94D903E0E02F
:1004AA00E0937D010895E0E0EBBBE7E0EABBE0E022
:1004BA00E8BBEFE0E7BBE0E0E5BBE4BBE2BBE0EFB3
:1004CA00E1BB17DFE2E0E3BFE0E0E2BFECBFEFBD74
:1004DA00EEBDEDBDECBDE7BDE6BDEBBDEABDE9BDD8
:1004EA00E8BDE2BDE2E0E5BDE0E0E4BDE3BDE5BFB5
:1004FA00E4BFE1E4E9BFE0E0EBB9E8E0EAB9E6E845
:10050A00E0BDE0E0E0BDE3E3E9B9E0E8E8B9E0E056
:10051A00E0BFE0E6E7B9E7E8E6B9E0E1EA930E947E
:10052A00510378945ADFFFCFFFCFFFE0FA95F1F736
:10053A000895A4B3AF70A4BBA99AA898F6DFAA9AA3
:10054A00F4DFA3B3AA98F1DFAA9AEFDFAA98A7FD6E
:10055A00F5CF0895A07FAB2BA5BBAA9A0E949A0259
:10056A00AA980E949A020895A998A4B3A76FA4BB57
:10057A00B5B3BF70A881EEDFA881A295EBDFA99A77
:10058A000C948903AA9A0E949A02E3B3AA980E9439
:10059A009A02E07F08950E949A02F4DFAE2FF2DFFA
:1005AA00A998E295EA2B08950E949E020E94E80308
:1005BA00EE57FE4FE081F0E0DF01E981F0E0EA0F5B
:1005CA00FB1FEA930E94B902E981E0938601E88160
:1005DA00E0938701229608950E949E02E2E0EA9340
:1005EA000E94B9020E949E02ECE0EA930E94B902BC
:1005FA000E949E02E1E0EA930E94B902E0E0E093E1
:10060A008701E09386010895EF93FF93A881689488
:10061A00AA3061F0E894E0918601EF5FE0938601E9
:10062A00E0918801A0918601EA1760F4E0918701C0
:10063A00EF5FE0938701E0E0EA93E0918701EA93B4
:10064A00B3DF2EF076DFA89AA881AA938DDFFF91F7
:10065A00EF910C9489031A93E981FA813196E9831F
:10066A00FA833197E4911E2FE03019F01A93CCDF08
:10067A00F3CF188123960895AA27BB271197F1F77C
:10068A000895A998A4B3A76FA4BBB5B3BF70A881F6
:10069A000E94AF02A99A38C0AA98A898E881E09364
:1006AA0088010E94E803E058FF4FE09384010E940A
:1006BA00E803E054FF4FE09385010E94EB030E9498
:1006CA00EB030E94EB03D8DFE0E2EA93DADFD4DF40
:1006DA00E8E20E94F103E4E00E94F103E5E80E94E7
:1006EA00F103A4B3AF70A4BBA99A0E94D002E5306B
:1006FA0011F0E0E009C00E949E02E6E0EA930E943F
:10070A00B9020E94F102E1E021960895E091720196
:10071A00F091730130970895A4E7B1E0ED91FD914E
:10072A003196FE93EE93A2E7B1E0ED91FD913197F8
:10073A00FE93EE930895A0917201B091730108950A
:10074A00FADFAC36E0E0BE070895E0917401F0915B
:10075A0075010895609181017727A0917F01B09179
:10076A008001E8E0F0E00E940D040895EA93E0E0D9
:10077A00EA930C94C701EA930E947101F0E008958C
:10078A00AE81BF81EAE0F0E008950E94FA03EE83A9
:10079A00FF83F6CFE0E0EA93E1E0EA930C94D90212
:1007AA00FA93EA930C943003E3E7F0E0F9CFECE034
:1007BA00EA93E1E0EA930C94D902E5E0EA93E1E0F6
:1007CA00EA930C94D902E881F0E008950E9441036B
:1007DA00E0E3EA930C944603EA930E94B9020C946C
:1007EA004103F195E195F04008950024112490E128
:1007FA00AA0FBB1F001C111C0E1A1F0A18F40E0E9A
:10080A001F1E01C0A1609A9599F7FD01D0010895B4
:10081A0007D0EBDF0EF4E5DF0895E7DFFD01089569
:10082A00E894F7FF02C0DDDF6894B7FF06C0A09521
:10083A00B095119600F8039400FA08953A932A9312
:10084A001A930A9308953B812A8119810881089590
:00000001FF
