:0A0000000C9434000C9400000C94E2
:10000A0000000C9400000C9476000C9400000C94F0
:10001A0000000C9400000C9400000C9464000C94F2
:10002A0000000C9400000C9400000C9400000C9446
:10003A0000000C9400000C9400000C9400000C9436
:10004A0000000C9400000C940000CC66339980C028
:10005A000400600154000200640158000000F89492
:10006A00EE27ECBBF1E0FBBFEBBFE5BFF8E1F1BD6A
:10007A00E1BD8DE0A2E0BB27ED938A95E9F780E028
:10008A0094E0A0E6ED930197E9F7EAE5F0E08591BF
:10009A009591009761F0A591B59105901590BF01D2
:1000AA00F00105900D920197E1F7FB01F0CFEFE522
:1000BA00EDBFE4E0EEBFC0E6D1E00C949400EA9311
:1000CA00FA93EFB7EA939394591450F49924E72DCD
:1000DA000E946A01E8BB7394E3E0E71508F4772409
:1000EA0011C0EA93FA93EFB7EA938394481450F451
:1000FA008824E62D0E946A01E2BB6394E3E0E615D8
:10010A0008F46624E991EFBFF991E99118959924C9
:10011A00882477246624E8E25E2E4E2E0895E0E0D5
:10012A00EBBBEABBE8BBEFE0E7BBE0E0E5BBE4BB67
:10013A00E2BBE0EFE1BBE2E0E3BFE0E0E2BFECBF3D
:10014A00EFBDEEBDEDBDECBDE7BDE6BDEBBDEABD65
:10015A00E9BDE8BDE2BDE2E0E5BDE0E0E4BDE3BD46
:10016A00E5BFE4BFE1E4E9BFE0E8E8B9E0E0E0BF09
:10017A00E0E1EA930E9438017894C9DFECE0E515E2
:10018A0008F45A94ECE0E41508F44A94E2E3F0E047
:10019A00FA93EA930E947901F1CFFFCFFFE0FA9533
:1001AA00F1F70895A4B3AF70A4BBA99AA898F6DF93
:1001BA00AA9AF4DFA3B3AA98F1DFAA9AEFDFAA9862
:1001CA00A7FDF5CF0895A07FAB2BA5BBAA9A0E94E5
:1001DA00D300AA980E94D3000895A998A4B3A76F40
:1001EA00A4BBB5B3BF70A881EEDFA881A295EBDFEF
:1001FA00A99A0C946801AA9A0E94D300E3B3AA9818
:10020A000E94D300E07F08950E94D300F4DFAE2F4E
:10021A00F2DFA998E295EA2B08950E94D700E2E05E
:10022A00EA930E94F2000E94D700ECE0EA930E944F
:10023A00F2000E94D700E1E0EA930E94F200E0E0B7
:10024A00AE2EBE2E0895AA27BB271197F1F708955F
:10025A00A998A4B3A76FA4BBB5B3BF70A8810E9425
:10026A00E800A99A30C0AA98A898D880E881F0E056
:10027A00E058FF4FE0936601E881F0E0E054FF4F59
:10028A00E093670127D026D025D0DDDFE0E2EA93AC
:10029A00DFDFD9DFE8E223D0E4E021D0E5E81FD0B0
:1002AA00A4B3AF70A4BBA99A0E940901E53011F06A
:1002BA00E0E009C00E94D700E6E0EA930E94F2005B
:1002CA000E941201E1E021960895F0E0E05AFE4F03
:1002DA00E08108950E942801E0E3EA93B9CFEA9306
:1002EA000E94F2000C942801E991F991309639F0B4
:1002FA0080EA9FE00197F1F7A8953197C9F7089529
:00000001FF
