:0E0000000C944A000C9400000C9400000C9428
:10000E0000000C9400000C94A7000C9400000C94BB
:10001E0000000C9400000C9400000C9400000C9452
:10002E007A000C9400000C9400000C9400000C94C8
:10003E0000000C9400000C9400000C9400000C9432
:10004E0000000C9400001027E80364000A00010071
:10005E000010000110000100CC663399993366CC74
:10006E006900140080C0040060026600040064028F
:10007E006A00010074026E0001000A0070000200A6
:10008E00750272000000F894EE27ECBBF1E0FBBFA6
:10009E00EBBFE5BFF8E1F1BDE1BD8DE0A2E0BB270E
:1000AE00ED938A95E9F780E098E0A0E6ED9301974D
:1000BE00E9F7E4E7F0E085919591009761F0A5915D
:1000CE00B59105901590BF01F00105900D92019725
:1000DE00E1F7FB01F0CFEFE5EDBFE8E0EEBFC0E6E4
:1000EE00D2E00C9480010A92EA93FA93EFB7EA9366
:1000FE008394481418F40C2C0D2809F405C0882498
:10010E000E946E0208F466249394591430F4E09120
:10011E006802F0916902309709F40CC09924E72D1A
:10012E00F0E0E05AFD4FE081E2BB7394E3E0E715A7
:10013E0008F47724E991EFBFF991E99109901895A8
:10014E000A921A92FA926A937A938A939A93AA933C
:10015E00BA93EA93FA93EFB7EA93B394E8E2EB1506
:10016E0010F00C940301BB246CD00E947802E09333
:10017E007202F0937302A0916A02B0916B0215970E
:10018E0030F4E0917402F0E00E947D0218C00E94EB
:10019E007D02159770F4E0917402F0E0A0916A026E
:1001AE00B0916B02AE1BBF0BA0937002B0937102A5
:1001BE000CC00E947D02E0916A02F0916B02EA1B74
:1001CE00FB0BE0937002F09371020E948202DF013A
:1001DE00FB01EA1B4E2E0E948202DB01EA0F5E2E0D
:1001EE00E0916A02EA93CDD0E0916E02EA93C9D013
:1001FE00E0916C02EA93C5D0E991EFBFF991E991D4
:10020E00B991A9919991899179916991F9901990E2
:10021E0009901895E881E066E7B985E38A95F1F7CC
:10022E00369A349BFECF349AE5B10C946C02992425
:10023E008824BB24772466245A2C4A2C0E949902C7
:10024E0008950E94ED02E0E0E0936A02E0936B02F3
:10025E00E0936E02E0936F02E0936C02E0936D0206
:10026E0000E030E020E0EFEFEA938BD0E5E00E9473
:10027E00A102E0936A02F0936B02E6E00E94A102F3
:10028E00E0936E02F0936F02E7E00E94A102E0930A
:10029E006C02F0936D020E94F202249608951A9356
:1002AE00CC24DD24E0E0E0936802E09369020E9432
:1002BE00A60210E01D32B8F40E946E0208F4662405
:1002CE00E72DF0E0EC59FD4FE081E2BB7394E3E0E3
:1002DE00E71508F47724E8E0F0E0FA93EA930E9439
:1002EE00B7021F5FE7CF0E94A6020E9499021991E2
:1002FE000895E0E0EBBBE7E0EABBE0E0E8BBEFE04F
:10030E00E7BBE0E0E5BBE4BBE2BBE0EFE1BB8FDFC8
:10031E00E2E0E3BFE0E0E2BFECBFEFBDEEBDEDBD5E
:10032E00ECBDE7BDE6BDEBBDEABDE9BDE8BDE2BD96
:10033E00E2E0E5BDE0E0E4BDE3BDE5BFE4BFE1E43E
:10034E00E9BFE0E0EBB9E8E0EAB9E6E8E0BDE0E0FD
:10035E00E0BDE3E3E9B9E0E8E8B9E0E0E0BFE0E6FC
:10036E00E7B9E7E8E6B9E0E1EA930E94350278944E
:10037E00A0916E02B0916F025F9708F090DFF8CFF8
:10038E00FFCF5D9BFECFE881ECB90C946C02FFE0D1
:10039E00FA95F1F70895A4B3AF70A4BBA99AA898E3
:1003AE00F6DFAA9AF4DFA3B3AA98F1DFAA9AEFDFD9
:1003BE00AA98A7FDF5CF0895A07FAB2BA5BBAA9A4F
:1003CE000E94CE01AA980E94CE010895A998A4B3C6
:1003DE00A76FA4BBB5B3BF70A881EEDFA881A295AD
:1003EE00EBDFA99A0C946C02AA9A0E94CE01E3B399
:1003FE00AA980E94CE01E07F08950E94CE01F4DFFC
:10040E00AE2FF2DFA998E295EA2B08950E94D20151
:10041E00E2E0EA930E94ED010E94D201ECE0EA9341
:10042E000E94ED010E94D201E1E0EA930E94ED01EB
:10043E00E0E0E0937A02E09379020895AA27BB27C1
:10044E001197F1F70895A998A4B3A76FA4BBB5B3FC
:10045E00BF70A8810E94E301A99A37C0AA98A898F4
:10046E00E881E0937B02F0E0E058FF4FE0937702E3
:10047E00E881F0E0E054FF4FE09378020E94AC0276
:10048E000E94AC020E94AC02D9DFE0E2EA93DBDF0D
:10049E00D5DFE8E20E94B202E4E00E94B202E5E893
:1004AE000E94B202A4B3AF70A4BBA99A0E94040228
:1004BE00E53011F0E0E009C00E94D201E6E0EA93D7
:1004CE000E94ED010E940D02E1E021960895E62DB5
:1004DE00F0E0E05AFD4FE081E8BB6394E3E0E615FF
:1004EE000895E0917002F09171020895A0916C024E
:1004FE00B0916D0208956A2D7727A0917002B09188
:10050E007102E0E1F0E00E94DA020F01A0917202A6
:10051E00B0917302E6DFEA1BFB0BEE0FFF1FE00D3F
:10052E00F11D0895E1E0F0E06F01E0936802F093B1
:10053E0069020895EA930E941101F0E00895EAE03D
:10054E00F0E0FA93EA930C94B7020E942502E0E3DE
:10055E00EA930C942A02EA930E94ED010C94250270
:10056E00E991F991309639F080EA9FE00197F1F721
:10057E00A8953197C9F70895F195E195F040089542
:10058E000024112490E1AA0FBB1F001C111C0E1A8F
:10059E001F0A18F40E0E1F1E01C0A1609A9599F73E
:1005AE00FD01D001089504D0EBDF0EF4E5DF0895D0
:1005BE00E894F7FF02C0E0DF6894B7FF06C0A0958D
:1005CE00B095119600F8039400FA08953A932A9381
:1005DE001A930A9308953B812A81198108810895FF
:00000001FF
