:100000000C9430000C9400000C9400000C94000040
:100010000C947E000C9400000C9400000C940000E2
:100020000C9400000C9400000C9460000C940000F0
:100030000C9400000C9400000C9400000C94000040
:100040000C9400000C9400000C9400000C94000030
:100050000C940000CC663399040060025400000048
:10006000F894EE27ECBBF1E0FBBFEBBFE5BFF8E196
:10007000F1BDE1BD8DE0A2E0BB27ED938A95E9F7E4
:1000800080E098E0A0E6ED930197E9F7E8E5F0E07D
:1000900085919591009761F0A591B5910590159086
:1000A000BF01F00105900D920197E1F7FB01F0CF40
:1000B000EFE5EDBFE8E0EEBFC0E6D2E00C947F00D4
:1000C000EA93FA93EFB7EA934394E1E0E41588F4F6
:1000D0004424E62DF0E0E05AFD4FE081E8BB989B18
:1000E00002C0A89801C0A89A6394E3E0E61508F45A
:1000F0006624E991EFBFF991E99118951895E0E030
:10010000EBBBEABBE8BBEFE0E7BBE7E0E5BBE4BB8A
:10011000E0E0E2BBE0EFE1BBEDE0E3BFE0E0E2BF47
:10012000E4E6ECBFE0E0EFBDEEBDEDBDECBDE7BD4C
:10013000E6BDEBBDEABDE9BDE8BDE2BDEFE0E5BD72
:10014000E0E0E4BDE4E6E3BDE0E0E5BFE4BFE2E813
:10015000E9BFE0E8E8B9E0E0E0BF7894FFCFFFCF87
:00000001FF
