:020000000C945E
:1000020038000C9400000C9400000C9400000C9436
:100012007F000C9400000C9400000C9400000C94DF
:1000220000000C9468000C9400000C9400000C94E6
:1000320000000C9400000C9400000C9400000C943E
:1000420000000C9400000C9400000C9400000C942E
:100052000000CC6633993C0080C00400600154006B
:10006200010064015800020065015A000000F89482
:10007200EE27ECBBF1E0FBBFEBBFE5BFF8E1F1BD62
:10008200E1BD8DE0A2E0BB27ED938A95E9F780E020
:1000920094E0A0E6ED930197E9F7ECE5F0E08591B5
:1000A2009591009761F0A591B59105901590BF01CA
:1000B200F00105900D920197E1F7FB01F0CFEFE51A
:1000C200EDBFE4E0EEBFC0E6D1E00C94A8000A92D6
:1000D200EA93FA93EFB7EA938394481418F40A2C3C
:1000E2000B2809F40AC08824E62D0E947A01E2BB9B
:1000F2006394E3E0E61508F4662416C00A92EA93D4
:10010200FA93EFB7EA939394591418F40C2C0D2830
:1001120009F40AC09924E72D0E947A01E8BB73947E
:10012200E3E0E71508F47724E991EFBFF991E9914B
:1001320009901895992488247724662450906401A4
:1001420040906401E1E0F0E05F016F0108952597BE
:10015200E0E0EBBBE8E3EABBE0E0E8BBEFE0E7BBF3
:10016200E0E0E5BBE4BBE2BBE0EFE1BBE2E0E3BF22
:10017200E0E0E2BFECBFEFBDEEBDEDBDECBDE7BD23
:10018200E6BDEBBDEABDE9BDE8BDE2BDE2E0E5BD2D
:10019200E0E0E4BDE3BDE5BFE4BFE1E4E9BFE0E8E0
:1001A200E8B9E0E0E0BFE0EEE7B9E6E8E6B9E0E1B1
:1001B200EA930E9447017894BDDFFFCFFFCFFFE0B3
:1001C200FA95F1F70895A4B3AF70A4BBA99AA898C1
:1001D200F6DFAA9AF4DFA3B3AA98F1DFAA9AEFDFB7
:1001E200AA98A7FDF5CF0895A07FAB2BA5BBAA9A2D
:1001F2000E94E000AA980E94E0000895A998A4B382
:10020200A76FA4BBB5B3BF70A881EEDFA881A2958A
:10021200EBDFA99A0C947801AA9A0E94E000E3B35A
:10022200AA980E94E000E07F08950E94E000F4DFB7
:10023200AE2FF2DFA998E295EA2B08950E94E4001E
:10024200E2E0EA930E94FF000E94E400ECE0EA93FD
:100252000E94FF000E94E400E1E0EA930E94FF0096
:10026200E0E0E0936A01E09369010895AA27BB27C1
:100272001197F1F70895A998A4B3A76FA4BBB5B3DA
:10028200BF70A8810E94F500A99A31C0AA98A898C7
:10029200E881E0936B01F0E0E058FF4FE0936701E3
:1002A200E881F0E0E054FF4FE093680127D026D0C8
:1002B20025D0DCDFE0E2EA93DEDFD8DFE8E223D01C
:1002C200E4E021D0E5E81FD0A4B3AF70A4BBA99AA3
:1002D2000E941601E53011F0E0E009C00E94E4003E
:1002E200E6E0EA930E94FF000E941F01E1E02196EE
:1002F2000895F0E0E05AFE4FE08108950E94370130
:10030200E0E3EA93B8CFEA930E94FF000C9437012E
:00000001FF
