:0A00000021C0FECFFDCFFCCF73C07E
:10000A00FACFF9CFF8CFF7CF47C0F5CFF4CFF3CF78
:10001A00F2CFF1CFF0CFEFCFEECFEDCFCC66339961
:10002A00993366CC1E0004006001260004006401B6
:10003A002A0001000A002E000000F894EE27ECBB0B
:10004A00F1E0FBBFEBBFE5BFF8E1F1BDE1BD8DE03B
:10005A00A2E0BB27ED938A95E9F780E094E0A0E659
:10006A00ED930197E9F7E0E3F0E085919591009728
:10007A0061F0A591B59105901590BF01F001059029
:10008A000D920197E1F7FB01F0CFEFE5EDBFE4E058
:10009A00EEBFC0E6D1E01FC10A92EA93FA93EFB726
:1000AA00EA938394481418F40C2C0D2809F404C01C
:1000BA00882444D108F466249394591430F4E091C6
:1000CA006801F0916901309709F407C0992440D179
:1000DA00EC59FE4F40D108F47724E991EFBFF9912A
:1000EA00E991099018950A921A92FA926A937A9368
:1000FA008A939A93AA93BA93EA93FA93EFB7EA93F5
:10010A00B394E8E2EB1508F043C0BB2466D0E09153
:10011A007001F0917101E0937201F093730121D1A2
:10012A001F9720F423D12AD121D11AC02ED11F978B
:10013A0048F430D116D132D1A0937001B093710135
:10014A0029D10AC022D1E0916A01F0916B0116D13E
:10015A00E0916C01F0916D01A0916A01B0916B017F
:10016A00AE0FBF1FFD01F695E795E093740119D113
:10017A0071D12CF41BD1DB01EA0F4E2E09C0A091DC
:10018A007101AA232AF412D1DF01FB01EA1B5E2EB8
:10019A00E991EFBFF991E991B991A9919991899161
:1001AA0079916991F990199009901895E881E06E12
:1001BA00E7B985E38A95F1F7369A349BFECF349AEC
:1001CA00E5B12196089599248824BB2477246624CE
:1001DA005A2C4A2CF2D0F4D0089540D1E0E0E093B2
:1001EA006A01E0936B01E0936E01E0936F01E09383
:1001FA006C01E0936D0100E030E020E0E3E0E7D03D
:10020A000E2FE3B3E160E5BBE3E0E1D0E2D0E09397
:10021A006A01F0936B01E3B3EE7FE5BBE02FD9D01F
:10022A00A0D0BCD0A0936A01B0936B01D4D0E4E013
:10023A00CED02E2FE3B3E260E5BBE4E0C8D0C9D04C
:10024A00E0936C01F0936D01E3B3ED7FE5BBE22F20
:10025A00C0D09BD0A3D0A0936C01B0936D01BBD04A
:10026A00E5E0B5D03E2FE3B3E460E5BBE5E0AFD00F
:10027A00B0D0E0936E01F0936F01E3B3EB7FE5BB7F
:10028A00E32FA7D0ACD08AD0A0936E01B0936F01B0
:10029A00A2D0E9D0249608951A93CC24DD24E0E074
:1002AA00E0936801E093690110E01B3480F446D0C2
:1002BA0008F466244DD0E05AFE4F4DD008F4772456
:1002CA00E2E0F0E0FA93EA938FD01F5FEECF75D0A9
:1002DA0077D019910895E0E0E8BBEFE0E7BBE0E0F2
:1002EA00E5BBE4BBE2BBE0EFE1BB6DDFE2E0E3BF0D
:1002FA00E0E0E2BFEFBDEEBDEDBDECBDE7BDE6BDA2
:10030A00EBBDEABDE9BDE8BDE2BDE2E0E5BDE0E086
:10031A00E4BDE3BDE5BFE1E4E9BFE0E8E8B9E0E058
:10032A00E0BFE0EEE7B9E7E8E6B9789458D0AB3534
:10033A00E0E0BE0708F0B0DFF9CFFFCFE62DF0E02E
:10034A00EC59FE4FE081E8BB6394E3E0E6150895BB
:10035A00E72DF0E00895E081E2BB7394E3E0E7154E
:10036A000895A0916A01B0916B010895E09174011A
:10037A00F0E0A0916C01B0916D010895EA1BFB0BAE
:10038A00E0937001F09371010895A0916C01B0910E
:10039A006D010895E0917401F0E00895AE1BBF0B62
:1003AA000895A0917001B091710108956A2D77277F
:1003BA00F8DFE8E0F0E03BD00895E1E0F0E00895EE
:1003CA006F01FBDFE0936801F09369010895EA93F6
:1003DA00EDCEF0E0089585E28A95F1F70895A091AF
:1003EA006E01B0916F010895E991F991309639F053
:1003FA0080EA9FE00197F1F7A8953197C9F7089528
:10040A00F195E195F04008950024112490E1AA0F96
:10041A00BB1F001C111C0E1A1F0A18F40E0E1F1EF9
:10042A0001C0A1609A9599F7FD01D001089504D001
:10043A00EBDF0EF4E5DF0895E894F7FF02C0E0DF92
:10044A006894B7FF06C0A095B095119600F803947A
:10045A0000FA089500240A160B0608953A932A937F
:10046A001A930A9308953B812A8119810881089574
:00000001FF
