:0E0000000C9439000C9400000C9400000C9439
:10000E0000000C9496000C9400000C9400000C94CC
:10001E0000000C9400000C9469000C9400000C94E9
:10002E0000000C9400000C9400000C9400000C9442
:10003E0000000C9400000C9400000C9400000C9432
:10004E0000000C940000CC663399993366CC80C0C6
:10005E0004006001540004006401580002007201A3
:10006E005C000000F894EE27ECBBF1E0FBBFEBBFA9
:10007E00E5BFF8E1F1BDE1BD8DE0A2E0BB27ED9358
:10008E008A95E9F780E094E0A0E6ED930197E9F711
:10009E00EEE5F0E085919591009761F0A591B5910F
:1000AE0005901590BF01F00105900D920197E1F7B3
:1000BE00FB01F0CFEFE5EDBFE4E0EEBFC0E6D1E02F
:1000CE000C94D7010A92EA93FA93EFB7EA938394CA
:1000DE00481418F40C2C0D2809F405C088240E942D
:1000EE00ED0208F466249394591430F4E0916801FB
:1000FE00F0916901309709F40CC09924E72DF0E0D6
:10010E00E05AFE4FE081E8BB7394E3E0E71508F494
:10011E007724E991EFBFF991E991099018950A9228
:10012E001A92FA926A937A938A939A93AA93BA93AB
:10013E00EA93FA93EFB7EA93B394E8E2EB1510F073
:10014E000C94F500BB2470D0A0916A01B0916B01A4
:10015E00189720F00E94F702189708F40BC00E941F
:10016E00F7020E94FC02EA1BFB0BE0937001F09376
:10017E00710105C0E0E0E0937001E0937101A09180
:10018E007001B09171010E9451033CF4E091700135
:10019E00F0917101B8964E2E08C0A0917001B091E9
:1001AE007101E8E2F0E0EA1B5E2E0E94FC02FA9377
:1001BE00EA93E0E00E940103E0916C01F0916D0181
:1001CE00FA93EA93EAE00E940103E0916E01F09146
:1001DE006F01FA93EA93E5E00E940103E991EFBF04
:1001EE00F991E991B991A991999189917991699131
:1001FE00F990199009901895E881E06EE7B985E3BA
:10020E008A95F1F7369A349BFECF349AE5B10C9469
:10021E00EB0299248824BB2477246624E8E25E2E20
:10022E004E2E0E94060308951A93E0E0E0936A01B1
:10023E00E0936B01E0936E01E0936F01E0936C012C
:10024E00E0936D0110E01230A0F4E9B3E160EBBB76
:10025E00E3E00E940E030E94F702EA0FFB1FE093F9
:10026E006C01F0936D01E9B3EE7F0E9413031F5FE3
:10027E00EACF10E01230B0F4E9B3E260EBBBE4E099
:10028E000E940E03A0916A01B0916B01EA0FFB1F51
:10029E00E0936A01F0936B01E9B3ED7F0E941303C3
:1002AE001F5FE8CF10E01230B0F4E9B3E460EBBBAF
:1002BE00E5E00E940E03A0916E01B0916F01EA0F6E
:1002CE00FB1FE0936E01F0936F01E9B3EB7F0E9489
:1002DE0013031F5FE8CF0E94FC02F695E795E093AB
:1002EE006A01F0936B01E0916C01F0916D01F6954E
:1002FE00E795E0936C01F0936D01E0916E01F09142
:10030E006F01F695E795E0936E01F0936F0146C08D
:10031E000E945503ED81EA93ED81EA930E945D02FE
:10032E000E9418030E944E03F0961E2F0E9418037F
:10033E000E941D030E944E03F0960E2F0E9418037A
:10034E000E941D030E944E03F0963E2F3A930E9488
:10035E008A020A930E948A021A930E948A020E94BB
:10036E005A03289608951A9310E01639B8F40E948D
:10037E00ED0208F46624E72DF0E0EC59FE4FE08123
:10038E00E8BB7394E3E0E71508F47724E8E0F0E0C7
:10039E00FA93EA930E942F031F5FE7CF19910895F6
:1003AE00E0E0EBBBE7E0EABBE0E0E8BBEFE0E7BB99
:1003BE00E0E0E5BBE4BBE2BBE0EFE1BB2ADFE2E05D
:1003CE00E3BFE0E0E2BFECBFEFBDEEBDEDBDECBDC7
:1003DE00E7BDE6BDEBBDEABDE9BDE8BDE2BDE2E0CD
:1003EE00E5BDE0E0E4BDE3BDE5BFE4BFE1E4E9BFA8
:1003FE00E0E8E8B9E0E0E0BFE0EEE7B9E7E8E6B94B
:10040E00E0E1EA930E94BB027894A0916E01B09154
:10041E006F01559750F0CC24DD24E0E0E0936801A5
:10042E00E0936901A0DF0E940603EFCFFFCFFFE04C
:10043E00FA95F1F70895A4B3AF70A4BBA99AA89842
:10044E00F6DFAA9AF4DFA3B3AA98F1DFAA9AEFDF38
:10045E00AA98A7FDF5CF0895A07FAB2BA5BBAA9AAE
:10046E000E941E02AA980E941E020895A998A4B383
:10047E00A76FA4BBB5B3BF70A881EEDFA881A2950C
:10048E00EBDFA99A0C94EB02AA9A0E941E02E3B328
:10049E00AA980E941E02E07F08950E941E02F4DFB9
:1004AE00AE2FF2DFA998E295EA2B08950E94220260
:1004BE000E942203EE58FE4FE081F0E0DF01E98159
:1004CE00F0E0EA0FFB1FEA930E943D02A980E8814B
:1004DE00E0937601229608950E942202E2E0EA93CA
:1004EE000E943D020E942202ECE0EA930E943D022D
:1004FE000E942202E1E0EA930E943D02E0E0E093D6
:10050E007601AE2E0895EF93FF93A8816894AA30DA
:10051E0031F0E894A394E0917701EA1560F4E0914C
:10052E007601EF5FE0937601E0E0EA93E0917601E9
:10053E00EA93BCDF2EF07FDFA89AA881AA9396DFFC
:10054E00FF91EF910C94EB02AA27BB271197F1F7BD
:10055E000895A998A4B3A76FA4BBB5B3BF70A88123
:10056E000E943302A99A30C0AA98A898E881E09315
:10057E00770161D0E058FF4FE09374015CD0E054F6
:10058E00FF4FE09375015AD059D058D0DDDFE0E22D
:10059E00EA93DFDFD9DFE8E256D0E4E054D0E5E8B5
:1005AE0052D0A4B3AF70A4BBA99A0E945402E530F6
:1005BE0011F0E0E009C00E942202E6E0EA930E94F8
:1005CE003D020E947302E1E021960895E62DF0E0CF
:1005DE00E05AFE4FE081E2BB6394E3E0E615089536
:1005EE00A0916C01B0916D010895E0916A01F091B6
:1005FE006B010895EA93E0E0EA930C948F01E1E039
:10060E00F0E06F01E0936801F09369010895EA93B9
:10061E000E940301F0E00895EBBB85E28A95F1F7A5
:10062E000895AE81BF81EAE0F0E008950E943B0399
:10063E00EE83FF83F6CFE881F0E008950E94AB02CF
:10064E00E0E3EA9386CFEA930E943D020C94AB025C
:10065E00E991F991309639F080EA9FE00197F1F730
:10066E00A8953197C9F708950024112490E1AA0F97
:10067E00BB1F001C111C0E1A1F0A18F40E0E1F1E93
:10068E0001C0A1609A9599F7FD01D0010895ECDFA4
:10069E00FD01089500240A160B0608953A932A9335
:1006AE001A930A9308953B812A811981088108952E
:00000001FF
