:100000000C942F000C9400000C9400000C94000041
:100010000C9400000C9400000C9400000C94000060
:100020000C9400000C9400000C9400000C94000050
:100030000C9400000C9400000C9400000C94000040
:100040000C9400000C9400000C9400000C94000030
:100050000C94000080C00200600154000000F8947D
:10006000EE27ECBBF1E0FBBFEBBFE5BFF8E1F1BD74
:10007000E1BD8DE0A2E0BB27ED938A95E9F780E032
:1000800094E0A0E6ED930197E9F7E6E5F0E08591CD
:100090009591009761F0A591B59105901590BF01DC
:1000A000F00105900D920197E1F7FB01F0CFEFE52C
:1000B000EDBFE4E0EEBFC0E6D1E00C945F00E0E00D
:1000C000EBBBE8E3EABBE0E0E8BBEFE0E7BBE0E086
:1000D000E5BBE4BBE2BBE0EFE1BBE2E0E3BFE0E0B5
:1000E000E2BFECBFEFBDEEBDEDBDECBDE7BDE6BDD3
:1000F000EBBDEABDE9BDE8BDE2BDE5BDE4BDE3BDE4
:10010000E5BFE4BFE9BFE0E8E8B9E0E0E0BFE0EE6A
:10011000E7B9E7E8E6B9E0E1EA930E940801EBB34A
:10012000E863EBBBE2E3F0E0FA93EA930E94440158
:10013000EBB3E77CEBBBE8ECF0E0FA93EA930E94C8
:100140004401EDCFFFCFFFE0FA95F1F70895A4B396
:10015000AF70A4BBA99AA898F6DFAA9AF4DFA3B35C
:10016000AA98F1DFAA9AEFDFAA98A7FDF5CF089524
:10017000A07FAB2BA5BBAA9A0E94A300AA980E94BD
:10018000A3000895A998A4B3A76FA4BBB5B3BF708B
:10019000A881EEDFA881A295EBDFA99A0C94380123
:1001A000AA9A0E94A300E3B3AA980E94A300E07F4A
:1001B00008950E94A300F4DFAE2FF2DFA998E29524
:1001C000EA2B08950E94A700E2E0EA930E94C20091
:1001D0000E94A700ECE0EA930E94C2000E94A700E0
:1001E000E1E0EA930E94C200E0E04E2E5E2E089508
:1001F000AA27BB271197F1F70895A998A4B3A76F71
:10020000A4BBB5B3BF70A8810E94B800A99A30C042
:10021000AA98A8987880E881F0E0E058FF4FE09332
:100220006201E881F0E0E054FF4FE093630122D0E7
:1002300021D020D0DDDFE0E2EA93DFDFD9DFE8E2A2
:100240001ED0E4E01CD0E5E81AD0A4B3AF70A4BB84
:10025000A99A0E94D900E53011F0E0E009C00E949F
:10026000A700E6E0EA930E94C2000E94E200E1E0FB
:10027000219608950E94F800E0E3EA93BECFEA9346
:100280000E94C2000C94F800E991F991309639F07F
:1002900080EA9FE00197F1F7A8953197C9F7089593
:00000001FF
