:0A0000000C9434000C9400000C94E2
:10000A0000000C9400000C9494000C9400000C94D2
:10001A0000000C9400000C9400000C9464000C94F2
:10002A0000000C9400000C9400000C9400000C9446
:10003A0000000C9400000C9400000C9400000C9436
:10004A0000000C9400000C940000CC66339980C028
:10005A0004006001540002006E0158000000F89488
:10006A00EE27ECBBF1E0FBBFEBBFE5BFF8E1F1BD6A
:10007A00E1BD8DE0A2E0BB27ED938A95E9F780E028
:10008A0094E0A0E6ED930197E9F7EAE5F0E08591BF
:10009A009591009761F0A591B59105901590BF01D2
:1000AA00F00105900D920197E1F7FB01F0CFEFE522
:1000BA00EDBFE4E0EEBFC0E6D1E00C9454010A9231
:1000CA00EA93FA93EFB7EA938394481418F40C2C42
:1000DA000D2809F40AC08824E62D0E949202E2BB88
:1000EA006394E3E0E61508F466249394591430F413
:1000FA00E0916401F0916501309709F40AC09924EE
:10010A00E72D0E949202E8BB7394E3E0E71508F436
:10011A007724E991EFBFF991E9910990189518951B
:10012A0099248824BB2477246624E8E25E2E4E2E86
:10013A00E1E0F0E06F01E0936401F0936501089556
:10014A00E881E06EE7B985E38A95F1F7369A349B40
:10015A00FECF349AE5B10C9490021A93E0E0E09352
:10016A006601E0936701E0936A01E0936B01E09313
:10017A006801E093690110E01830B0F4E9B3E16076
:10018A00EBBBE3E00E949702A0916801B09169017C
:10019A00EA0FFB1FE0936801F0936901E9B3EE7F70
:1001AA000E949C021F5FE8CF10E01830B0F4E9B358
:1001BA00E260EBBBE4E00E949702A0916601B09175
:1001CA006701EA0FFB1FE0936601F0936701E9B349
:1001DA00ED7F0E949C021F5FE8CF10E01830B0F458
:1001EA00E9B3E460EBBBE5E00E949702A0916A01E3
:1001FA00B0916B01EA0FFB1FE0936A01F0936B0168
:10020A00E9B3EB7F0E949C021F5FE8CF0E94A10224
:10021A000E94C202E0936601F0936701E0916801CF
:10022A00F09169010E94C202E0936801F0936901AA
:10023A00E0916A01F0916B010E94C202E0936A01A7
:10024A00F0936B01199108950E94E302ED81EA93FC
:10025A00ED81EA930E9402020E94A6020E94DC0239
:10026A00F0961E2F0E94A6020E94AB020E94DC0298
:10027A00F0960E2F0E94A6020E94AB020E94DC0298
:10028A00F0963E2F3A930E942F020A930E942F0261
:10029A001A930E942F020E94E80228960895E0E02D
:1002AA00EBBBE8E3EABBE0E0E8BBEFE0E7BBE0E09A
:1002BA00E5BBE4BBE2BBE0EFE1BB32DFE2E0E3BF78
:1002CA00E0E0E2BFECBFEFBDEEBDEDBDECBDE7BDCA
:1002DA00E6BDEBBDEABDE9BDE8BDE2BDE2E0E5BDD4
:1002EA00E0E0E4BDE3BDE5BFE4BFE1E4E9BFE0E887
:1002FA00E8B9E0E0E0BFE0EEE7B9E6E8E6B9E0E158
:10030A00EA930E946002789428DFA0916801B09174
:10031A0069010E94A102EA1BFB0BE0936C01F093B6
:10032A006D01A0916C01B0916D010E94DF0218F479
:10033A00B8964E2E08C0A0916C01B0916D01E8E20A
:10034A00F0E0EA1B5E2E0E94A102FA93EA93E0E033
:10035A000E94B002E0916801F0916901FA93EA9370
:10036A00EAE00E94B002E0916A01F0916B01FA930F
:10037A00EA93E5E00E94B002C7CFFFCFFFE0FA950B
:10038A00F1F70895A4B3AF70A4BBA99AA898F6DFB1
:10039A00AA9AF4DFA3B3AA98F1DFAA9AEFDFAA9880
:1003AA00A7FDF5CF0895A07FAB2BA5BBAA9A0E9403
:1003BA00C301AA980E94C3010895A998A4B3A76F7C
:1003CA00A4BBB5B3BF70A881EEDFA881A295EBDF0D
:1003DA00A99A0C949002AA9A0E94C301E3B3AA981C
:1003EA000E94C301E07F08950E94C301F4DFAE2F8B
:1003FA00F2DFA998E295EA2B08950E94C7010E94AC
:10040A00B502E259FE4FE081F0E0DF01E981F0E058
:10041A00EA0FFB1FEA930E94E201A980E881E093B8
:10042A007201229608950E94C701E2E0EA930E94AF
:10043A00E2010E94C701ECE0EA930E94E2010E94F5
:10044A00C701E1E0EA930E94E201E0E0E093720171
:10045A00AE2E0895EF93FF93A8816894AA3031F0E5
:10046A00E894A394E0917301EA1560F4E0917201B3
:10047A00EF5FE0937201E0E0EA93E0917201EA93A0
:10048A00BCDF2EF07FDFA89AA881AA9396DFFF919E
:10049A00EF910C949002AA27BB271197F1F70895C0
:1004AA00A998A4B3A76FA4BBB5B3BF70A8810E94D3
:1004BA00D801A99A30C0AA98A898E881E093730154
:1004CA004FD0E058FF4FE09370014AD0E054FF4FFD
:1004DA00E093710148D047D046D0DDDFE0E2EA93ED
:1004EA00DFDFD9DFE8E244D0E4E042D0E5E840D0FB
:1004FA00A4B3AF70A4BBA99A0E94F901E53011F028
:10050A00E0E009C00E94C701E6E0EA930E94E20126
:10051A000E941802E1E021960895F0E0E05AFE4FA9
:10052A00E0810895EA930E94A500F0E00895EBBBEC
:10053A0085E28A95F1F70895E0916601F0916701E5
:10054A000895AE81BF81EAE0F0E008950E94C902F1
:10055A00EE83FF83F6CFEA93E0E0EA930C94290155
:10056A00E881F0E008950E945002E0E3EA9398CF10
:10057A00EA930E94E2010C945002F695E795F695EB
:10058A00E795F695E79508950024112490E1AA0FBE
:10059A00BB1F001C111C0E1A1F0A18F40E0E1F1E78
:1005AA0001C0A1609A9599F7FD01D0010895ECDF89
:1005BA00FD01089500240A160B0608953A932A931A
:1005CA001A930A9308953B812A8119810881089513
:00000001FF
